:020000040800F2
:100000006824002001010008EB180008AD18000862
:10001000E9180008D7010008A93600080000000010
:10002000000000000000000000000000491F000860
:10003000B9030008000000009B1C00084B1F0008CB
:100040001B0100081B0100081B0100081B01000820
:100050001B0100081B0100081B0100081B01000810
:100060001B0100081B0100081B0100081B01000800
:100070001B0100081B0100081B0100081B010008F0
:100080001B0100081B0100081B0100081B010008E0
:10009000413600081B0100081B0100081B01000875
:1000A0001B0100081B0100081B0100081B010008C0
:1000B0001B0100081B0100081B0100081B010008B0
:1000C0001B0100081B0100081B0100081B010008A0
:1000D0001B0100081B01000811230008652300080C
:1000E0001B0100081B0100081B010008DFF80CD0F1
:1000F00000F034F800480047C139000868240020A7
:100100000648804706480047FEE7FEE7FEE7FEE7B1
:10011000FEE7FEE7FEE7FEE7FEE7FEE7DD1F00087D
:10012000ED00000840EA01039B0703D009E008C97D
:10013000121F08C0042AFAD203E011F8013B00F8AC
:10014000013B521EF9D27047034611F8012B00F80B
:10015000012B002AF9D1184670470000064C074DC4
:1001600006E0E06840F0010394E807009847103487
:10017000AC42F6D3FFF7BEFF843B0008A43B000867
:1001800070B58C1810F8015B15F0070301D110F859
:10019000013B2A1106D110F8012B03E010F8016B86
:1001A00001F8016B5B1EF9D12B0705D40023521E09
:1001B0000DD401F8013BFAE710F8013BCB1A921C71
:1001C00003E013F8015B01F8015B521EF9D5A1426F
:1001D000D8D3002070BDFEE7FEB51E4604287CDDA6
:1001E00020287AD1022E01D23D4C00E03D4C086817
:1001F0000D46002871D0A97900296ED06060A879D9
:10020000082842D04FF48050A060287908B14FF4FC
:100210000050E060687918B1012838D04FF4806050
:1002200020610C200027C4E90507E7612068C16848
:1002300021F40051C160204601F014FA20B140F2CF
:10024000191129A003F066FA2068C16841F0200165
:10025000C1602068C16841F08001C1602068C16848
:1002600041F01001C160022E14D2254807602620FB
:1002700001F047FB2068C16841F40051C1602620AD
:1002800001F034FB01221F4913E00020BCE74FF4CA
:10029000C060C5E71C480760272001F032FB2068DA
:1002A000C16841F40051C160272001F01FFB1749CC
:1002B0000122204601F062FA2879AA7969798DE84D
:1002C000070007482B68844202D111A201E004E034
:1002D00011A21349002001F061FD0020FEBD0000C5
:1002E00040050020800500202E2E2F5372632F75AD
:1002F0007362645F6364635F69662E63000000007D
:100300000400002000000020140000200100002054
:100310005541525432000000554152543300000000
:100320003C3B00080020704710B5002204490548F6
:1003300002F05EF90449034802F054F9002010BDB0
:10034000641A0020C00D00206418002070B50D460E
:10035000064601461446094802F044F9214607487A
:1003600002F01CF92888022C82B201D2044800E075
:100370000448314601F07AFA002070BDC00D00201B
:10038000400500208005002010B51446094AD2F827
:100390001822D2F814220AB1012010BD0A460146E3
:1003A000044802F025F92146BDE81040014802F05A
:1003B00063B90000C00D00207047000010B590F830
:1003C00021100024022903D00421816301243DE08F
:1003D00001680A6822F00E020A6001680A6822F0C9
:1003E00001020A601A4A0168914201D1012121E00B
:1003F000174A1432914201D110211BE0144A2832CD
:10040000914201D1891515E0114A3C32914201D146
:1004100089140FE00E4A5032914202D14FF48031DC
:1004200008E00B4A6432914202D14FF4801101E09E
:100430004FF08071064A083A5160012180F821107E
:10044000002180F82010416B01B18847204610BD83
:10045000080002402DE9F84FDFF890A100220AF1D0
:10046000040B144601274FF00F090BF1040E00BFD7
:100470000B6807FA04F52B40AB4274D1DFF870C16A
:100480004E68A6EB0C0866452BD00DDC032E34D04D
:1004900005DC36B3012E19D0022E2FD11BE0112E10
:1004A00016D0122E2AD119E0B8F5881F19D006DC13
:1004B000B8F5803F15D0B8F5801F1FD111E0B8F511
:1004C000001F0ED0B8F5041F18D10AE0CA6815E065
:1004D000CA68121D12E0CA6808320FE0CA680C32FE
:1004E0000CE08A682AB1012A4FF0080203D0456166
:1004F00004E0042202E0056100E00022FF2B01D8A5
:10050000064601E000F104064FEA840501D9A5F191
:100510002005D6F800C009FA05F82CEA080C02FA02
:1005200005F54CEA050CC6F800C04D68ED0057D53E
:10053000304DAE6946F00106AE61AD6924F00306A8
:1005400005F0010500952C4D06EB050CDCF8085074
:10055000A6074FEA167809FA08F6B543274EB042C7
:1005600002D1002610E03BE0254EB04201D1012629
:100570000AE0244EB04201D1022605E0224EB042EC
:1005800001D1032600E0042606FA08F62E43CCF833
:1005900008604D68DAF80060ED03554601D51E434A
:1005A00000E09E432E604D68DBF80060AD035D46C1
:1005B00001D51E4300E09E432E604D68DEF80060CA
:1005C000ED02754601D51E4300E09E432E604D6846
:1005D000AD020E4D2E6801D51E4300E09E432E60F5
:1005E000641C102CFFF444AFBDE8F88F00040140F8
:1005F00000001110001002400000014000080140FE
:10060000000C014000100140001401400C040140A6
:100610000148806870470000680000200248816837
:10062000027811448160704768000020074810B5C7
:10063000016841F010010160032000F09DF80020E6
:1006400000F006F800F024F8002010BD0020024061
:1006500070B50D4D04464FF47A712878B1FBF0F077
:100660000A490968B1FBF0F000F0E4FE48B9102C2B
:1006700007D200222146501E00F05EF800206C6078
:1006800070BD012070BD00006800002074000020D3
:10069000214808B5816941F001018161816901F05A
:1006A00001010091C16941F08051C161C06900F050
:1006B00080500090032000F05FF8002211466FF098
:1006C0000B0000F039F8002211466FF00A0000F02C
:1006D00033F8002211466FF0090000F02DF80022D7
:1006E0001146501F00F028F800221146101F00F09C
:1006F00023F800221146901E00F01EF80022114639
:10070000501E00F019F80548416821F0E06141F001
:100710000071416008BD000000100240000001406F
:1007200000F01F02012191404009800000F1E0200B
:10073000C0F8001170470000F0B40E4B1B680C4667
:10074000C3F30223C3F10705042D00D90425191DA5
:10075000072901D2002300E0DB1E012606FA05F17D
:10076000491E214099409E40761E16403143F0BC00
:1007700001F0D2B80CED00E0064900F0070208686D
:100780004FF6FF03184040EA0220034A1043086076
:10079000704700000CED00E00000FA0510B50C06F3
:1007A00005D501F07F0100EB4110283003E000EB9C
:1007B000411000F50A7099B232B101228272C180F3
:1007C000190C0181002010BD002282728180F9E79E
:1007D000704700EB4112D0F85C04D26B02F0E2B833
:1007E00000EB4112D0F85C04D2F83C2202F02FB9A1
:1007F00010B504460A460B0601F07F0004EB4011D9
:1008000001D5283101E001F50A710870D00948705E
:1008100094F82804012809D0012084F828042068CD
:1008200002F02AFD002084F8280410BD022010BD2B
:1008300070B50A460446090602F07F0003D504EBB2
:100840004011283103E004EB421101F50A71002543
:100850008D700870D009487094F82804012809D0D8
:10086000012084F82804206802F0B4FD84F828549C
:10087000002070BD022070BD01F00F0100EB41109F
:10088000B0F8440280B2704770B504460D460E06BB
:1008900001F07F0004EB401101D5283101E001F5A2
:1008A0000A710870E80948700A61CB7094F828044E
:1008B000012809D0012084F82804206802F0ACFB4C
:1008C000002084F8280470BD022070BD70B50C466D
:1008D00001F07F0500EB4511C1E98F230022C1F82B
:1008E000442281F8292281F8285201F50A71620612
:1008F000006802F0C9FD002070BD70B50D460446C9
:10090000090605F07F0003D504EB4011283103E010
:1009100004EB451101F50A7101228A700870E8099B
:10092000487094F82804012807D084F82824206807
:1009300002F085FD680602D006E0022070BD04F2D8
:100940002C41206802F044FD002084F8280470BD8A
:1009500070B50C4601F07F0500EB4511C1E90F238E
:1009600000224A64012281F8292001F8285F6206EA
:10097000006802F089FD002070BD10B504460068D3
:1009800002F064FE000402D5204600F0D5FF206886
:1009900002F05CFE40050CD5206830F8441F21F4BD
:1009A00080610180204600F0EDF80021204600F033
:1009B000FEF8206802F04AFE400405D5206830F8B1
:1009C000441F21F480410180206802F03FFE800432
:1009D00005D5206830F8441F21F4005101802068BB
:1009E00002F034FEC00414D5206830F8401F21F016
:1009F00004010180206830F8401F21F008010180C7
:100A0000204600F0CCF8206830F8441F21F48051D3
:100A10000180206802F01AFE00051AD5206830F81F
:100A2000401F41F008010180206830F8441F21F484
:100A300000610180206830F8401F41F0040101800E
:100A4000206802F003FEC043C00402D5204600F037
:100A5000E3F8206802F0FAFD800508D5206830F838
:100A6000441F21F400710180204600F09CF82068AA
:100A700002F0ECFDC00505D5206830F8441F21F4D4
:100A80008071018010BD00002DE9F04186B00400A6
:100A90004FF0000504D094F82904002620B108E0A6
:100AA000012006B0BDE8F08184F82864204600F0FB
:100AB0004BF8032084F82904206802F082FC04F13A
:100AC0001001142288466846FFF72CFB94E80F00BB
:100AD00002F0D0FB0021206802F0CBFD5FF001079F
:100AE00004EB451080F8297000F8285F8581C670F6
:100AF000066146616D1C86610F2DF1D35FF0000029
:100B000004EB401181F8296281F82802888681F877
:100B10002B62C1F83862C1F83C62401CC1F84062E7
:100B20000F28EDD3142241466846FFF7FBFA94E8FC
:100B30000F0002F037FC84F8246084F829742068E0
:100B400002F02EFC0020ACE708B500680B49884293
:100B500012D10B48C16941F40001C161C069002292
:100B600000F40000009011461420FFF7E5FDBDE8F9
:100B700008401420FFF7D4BD08BD0000005C004011
:100B80000010024010B504460121D0F85C0402F0C8
:100B90005DF8D4F85C04BDE8104002F026B8D0F847
:100BA0005C0402F041B8D0F85C0402F043B810B520
:100BB000044690F8280401280BD0012084F828046A
:100BC00084F82410206802F056FD002084F82804E0
:100BD00010BD022010BDD0F85C2400F22C4110465C
:100BE00002F047B810B5044690F82804012810D048
:100BF000012084F8280401462046FFF7E9FD20681B
:100C000002F0CCFB206802F014FD002084F82804D8
:100C100010BD022010BD000010B50446D0F85C04E1
:100C200002F074F8A069002804D00348016841F07C
:100C30000601016010BD000010ED00E00149012037
:100C40000862704700000E4210B529A401461DCC71
:100C500086B08DE81D002AA02A4C00680490002070
:100C6000012923D002293AD010291DD161682268B8
:100C7000D20119D5C1F38342C9031DF8020009D579
:100C8000616804AAC1F34041515C1F4AB2FBF1F113
:100C9000484301E01D4948436168490204D44000CB
:100CA0005FF00301B0FBF1F006B010BD226AC2F3A1
:100CB0000121012903D1920701D5C803F4E70229D4
:100CC00005D1626A920702D549F64040ECE7032954
:100CD000EAD121688903E7D54FF22440E4E700F028
:100CE0004DF96168C1F38131491C4900DAE7000020
:100CF00002030405060708090A0B0C0D0E0F10105D
:100D0000010200000010024000127A0000093D00BC
:100D10002DE9F84305460078354CC00754D0E0690A
:100D20000026C00008D4E06940F08050E061E0692E
:100D3000012600F0805000902E480168C90512D4A9
:100D40000168804641F480710160FFF761FC07464D
:100D500005E000BFFFF75CFCC01B642823D8D8F86F
:100D60000000C005F6D5206A10F4407021D0A98893
:100D700001F4407181421CD0206A1F49012220F4F5
:100D800040700A6000220A602062C00711D0FFF79D
:100D90003FFC074641F2883808E000BFFFF738FC07
:100DA000C11B414502D90320BDE8F883206A8007B2
:100DB000F4D5206A696820F44070084320621EB1AF
:100DC000E06920F08050E0612878800705D56068F0
:100DD000A96820F44040084360602878C00605D523
:100DE0006068E96820F48000084360600020DBE769
:100DF0000010024000700040400442422DE9F047DC
:100E0000DFF83C8105460E46D8F8000000F00700E8
:100E1000B0420CD2D8F8001021F007013143C8F8D5
:100E20000010D8F8000000F00700B04263D1287825
:100E3000444C800705D56068A96820F0F00008439D
:100E400060602878C00745D06868012816D02168FE
:100E5000022816D0890700294DDA616821F00301C4
:100E600001436160FFF7D4FB6968074641F28830AF
:100E700001290FD00229814619D027E02168890372
:100E8000E9E78901E7E700BFFFF7C2FBC11B49455E
:100E900001D918E081466068C0F381000128F3D1D0
:100EA00018E000BFFFF7B4FBC11B49450BD86068D1
:100EB000C0F381000228F5D10CE000BFFFF7A8FBCA
:100EC000C11B494502D90320BDE8F087606810F0D6
:100ED0000C0FF3D1D8F80010404601F00701B142E1
:100EE0000BD9016821F0070131430160006800F06F
:100EF0000700B04201D00120E6E72878400705D579
:100F00006068E96820F4E0600843606028780007C2
:100F100006D56068296920F4605040EAC10060602D
:100F200000F03CF86168084AC1F30311515CC84005
:100F3000064908600020FFF78BFB0020C4E7000093
:100F40000020024000100240243B000874000020F2
:100F500001480068704700007400002004480549FB
:100F600000684968044AC1F30221515CC8407047D7
:100F70007400002000100240343B0008044805497A
:100F800000684968044AC1F3C221515CC8407047F7
:100F90007400002000100240343B000812A185B00C
:100FA0000FC98DE80F0014A0144A0068049051681E
:100FB000134801F00C03042B10D0082B0ED1C1F301
:100FC0008343C9031DF803000AD5516804AAC1F37D
:100FD0004041515C0A4A5043B0FBF1F005B0704704
:100FE00008494843FAE70000020304050607080918
:100FF0000A0B0C0D0E0F1010010200000010024031
:1010000000127A0000093D002DE9F84F04460078EF
:10101000B94DC00748D06868C0F38100012807D0E7
:101020006868C0F38100022809D16868C00306D54A
:101030002868800338D5606800286FD034E0606885
:10104000B0F5803F0BD010B1B0F5A02F11D02868BB
:1010500020F480302860286820F4802002E028688E
:1010600040F480302860606888B1FFF7D1FA064606
:1010700009E0286840F480202860F0E7FFF7C8FA0C
:10108000801B642875D828688003F7D50CE0FFF72B
:10109000BFFA064605E000BFFFF7BAFA801B6428D6
:1010A000F0D828688003F7D42078944E80074FF05A
:1010B00001094FF000083BD5686810F00C0F07D00D
:1010C0006868C0F38100022809D16868C00306D4AB
:1010D0002868800714D5206901281FD110E02069F5
:1010E000B0B1C6F80090FFF793FA074605E000BFDD
:1010F000FFF78EFAC01B0228C4D828688007F7D5EE
:101100002868616920F0F80040EAC10028600FE01B
:10111000C6F80080FFF77CFA074606E0E9E000BF6A
:10112000FFF776FAC01B022823D828688007F7D477
:10113000207800072CD57248A169D9B1C0F8009079
:10114000FFF766FA074604E0FFF762FAC01B0228C1
:101150000FD8686A8007F7D56A484FF4FA510068DB
:10116000B0FBF1F0009000BF0098411E0091FAD250
:101170000EE080E0C0F80080FFF74AFA074604E07E
:10118000FFF746FAC01B022875D8686A8007F7D4B3
:101190002078400760D5E8690027C00008D4E869D6
:1011A00040F08050E861E869012700F0805000902D
:1011B00055480168C90513D40168834641F480711C
:1011C0000160FFF725FA824606E000BFFFF720FA2C
:1011D000A0EB0A0064284ED8DBF80000C005F5D566
:1011E000E06801280AD008B1052813D0286A20F049
:1011F00001002862286A20F0040002E0286A40F01A
:1012000001002862E06841F2883B98B1FFF700FADC
:1012100082460BE0286A40F004002862EEE700BF37
:10122000FFF7F6F9A0EB0A0159455AD8286A80075A
:10123000F6D50CE0FFF7ECF9824605E0FFF7E8F998
:10124000A0EB0A0159454CD8286A8007F6D41FB193
:10125000E86920F08050E861E06988B36968C1F30B
:101260008101022945D00228C6F8608004D0FFF72A
:10127000CFF9044638E034E0FFF7CAF9074604E046
:10128000FFF7C6F9C01B02282BD828688001F7D4C5
:10129000206AB0F5803F05D16868A16820F400306D
:1012A00008436860D4E908010843696821F47411AF
:1012B00008436860C6F86090FFF7AAF9044606E0A4
:1012C00015E000BFFFF7A4F9001B022809D8286821
:1012D0008001F7D50BE000BFFFF79AF9001B022849
:1012E00002D90320BDE8F88F28688001F4D40020DB
:1012F000F8E70120F6E7000000100240000042423B
:1013000080044242740000200070004070B5040068
:1013100003D0607C002610B105E0012070BD26746A
:10132000204600F043F802206074204600F058F890
:10133000042578BB204600F0B1FC58BB206841680A
:1013400021F007014160A06820B11748016821F031
:10135000010101601448001F0168A26821F4607156
:10136000114301606068411C04D10120FFF76CFC4F
:1013700080B1401E21688A6822F00F0242EA1042C2
:101380008A602168CA6860F30F02CA60204600F0D4
:101390009FFC08B16574C0E7E67301206073A07319
:1013A0006074002070BD0000306C004008B500681B
:1013B000084988420DD1FFF741FC0748C16941F057
:1013C0000061C161C069054900F000600090012022
:1013D000086008BD00280040001002403C04424262
:1013E00070B504000AD02068416821F0080141600E
:1013F000FFF70EF905464FF47A7608E0012070BD3C
:10140000FFF706F9401BB04201D9032070BD2068E8
:1014100040680007F4D5002070BD4FF0E02104289B
:10142000086903D020F004000861704740F0040010
:10143000FAE7704710B5401EB0F1807F01D301205C
:1014400010BD4FF0E02460610F21601700F064FAD6
:101450000020A06107202061002010BD10B5FFF71B
:10146000E8FF10BD7047000070B504460068012613
:10147000C16821F4F071C1602068416921F0010167
:101480004161206B002538B121684969090602D500
:101490001E49416300E04563606B38B121684969CA
:1014A000490602D51A49416300E045632068416955
:1014B00009060CD5416921F080014161206B30B1F2
:1014C000FEF77CFF10B1206B456300E0002620682A
:1014D000416949060BD5416921F040014161606BCA
:1014E00028B1FEF76BFF70B1606B456300E056B149
:1014F000E584E585E563202084F8390084F83A0026
:101500002046FFF7AFFF002070BD00005F200008FD
:101510003520000810B504460C48844205D1204609
:10152000FFF7A2FF01220A4909E00848403084423F
:101530000AD12046FFF798FF05490122491C2046A1
:10154000BDE8104000F01AB910BD000040050020B1
:101550000000002070B5026804461068D168536925
:1015600010F00F0F50D003F0010501F490763543D1
:101570005DD0C20705D0CA0503D5E26B42F0010277
:10158000E263420705D5DA0703D0E26B42F00202BC
:10159000E263820705D5DA0703D0E26B42F004026A
:1015A000E263020705D5DA0703D0E26B42F00802D6
:1015B000E263E26B002A33D0800604D5880602D5A8
:1015C000204600F06FFD20684069E16BC0F3801099
:1015D000090700D428B3204600F056FD2068416971
:1015E00049061AD5416921F040014161606BA0B103
:1015F0001B494163606BFEF7E1FE002810D0606B71
:10160000416BBDE870400847830610D58B060ED5A8
:101610002046BDE8704000F045BD2046FFF77AFF48
:1016200070BD2046FFF776FF0020E06370BD030623
:1016300006D50B0604D52046BDE8704000F036BE46
:101640004006F3D54806F1D5D168204621F0400187
:10165000D160202184F8391000F027F970BD000016
:101660002520000870B5040004D094F83900002546
:1016700010B106E0012070BD84F83850204600F01B
:1016800023F8242084F839002068C16821F400512F
:10169000C160204600F052FD2068016921F49041AC
:1016A00001612068416921F02A0141612068C16817
:1016B00041F40051C160E563202084F8390084F8CA
:1016C0003A00002070BD000030B5274D03680024AB
:1016D00026480221032285B0AB421FD1C36943F4DF
:1016E0000033C361C069224D00F40030049004202F
:1016F000CDE90001039269462846FEF7ABFE0820BB
:10170000CDE90004694628460294FEF7A3FE0022B4
:1017100001212620FFF710F8262021E0154DAB42CD
:1017200020D1C36943F48023C361C069039200F4EC
:10173000802004902815CDE900010F4D6946284608
:10174000FEF788FEE814CDE90004694628460294B5
:10175000FEF780FE002211462720FEF7EDFF27202E
:10176000FEF7DEFF05B030BD00440040001002402F
:101770000008014000480040000C014090F83A3059
:10178000202B22D1F9B1F2B190F83830012B1CD0C6
:1017900081628285C2850021C163222280F83A20BD
:1017A00080F838100168CA6842F48072CA60016823
:1017B0004A6942F001024A610068C16841F02001B3
:1017C000C160002070470120704702207047000070
:1017D000F0B4234D0122002354022249A8421AD119
:1017E00008464D680069A54208DA1D4F0E4680374D
:1017F00007EB402736787E556D1C4D60A54206D11B
:101800008C6824B98243C1E90302C1E90135012290
:10181000144913481FE0124D4035A8421ED111480B
:101820004D69006AA54208DA0E4E0F4F761C07EB91
:10183000402736787E556D1C4D61A54206D18C69D6
:1018400024B98243C1E90702C1E9053505490448C5
:101850000122491C4030F0BCFFF790BFF0BC70473C
:101860004005002000000020C009002090F8393019
:10187000202B18D1A9B1A2B190F83830012B12D089
:1018800001628284C2840021C163212280F8392050
:1018900080F838100068C16841F08001C160002004
:1018A000704701207047022070477047FEE7000034
:1018B00010B500220849094801F03FF808490748D7
:1018C00001F051FA0749054800F084FEBDE81040D8
:1018D000024801F095BA000024000020C00D00204D
:1018E0003C02002058000020FEE7704700F01F0275
:1018F000012191404009800000F1E020C0F88012F1
:10190000704700F01F02012191404009800000F162
:10191000E020C0F8001170470907090E002806DA18
:1019200000F00F0000F1E02080F8141D704700F176
:10193000E02080F8001470472DE9FC5F4FF00008AC
:101940000446ADF80480ADF8008048F60F7B4FF0F8
:1019500002094FF4806692E1BDF8041011F00F0700
:101960002BD030F82710ADF80010BDF80010090496
:1019700078D530F8272040F68F710A4020F82720CC
:1019800004EB471595F8320205F50A750028206822
:1019900069D0297830F8212052047DD5B0F8503034
:1019A00009EBC101194406EB4101415AC1F3090198
:1019B0005FEA010A71D0EA88D0E0BDF80410C906D8
:1019C0002AD4018801EA0B010180206804F128056E
:1019D000B0F850202B7809EBC301114406EB41010C
:1019E000405AC0F309006064E16B0844E0630021E1
:1019F0002046FEF7EEFE94F824000028ABD0A8693C
:101A00000028A8D194F82400216840F08000A1F8B3
:101A10004C0084F8248032E1018804F50A75ADF8A1
:101A20000010BDF8001009051ED5B0F85030297817
:101A3000062202EBC101194406EB4101405A04F2AF
:101A40002C41C0F30903EB61AA88206801F002FE73
:101A50002068018840F68F72114001802046FFF710
:101A6000BAF80CE1A0E055E0BDF800100904D2D5A9
:101A7000028840F68F710A4002802068B0F850302A
:101A80002978062202EBC101194406EB4101405AB4
:101A900083059B0DEB6101E051E063E008D0AA886B
:101AA0006969206801F0D6FDE969686908446861E0
:101AB00000212046FEF794FE2068B0F85010891DE2
:101AC00006EB4101014428693E280CD9C0F34F12AE
:101AD000C00601D1521E92B24FF6FF7000EA82207A
:101AE00040F4004009E0C0F34F02C00701D0521C8F
:101AF00092B24FF6FF7000EA8220086021680888E1
:101B00004BF68F72104080F4405048F28002104330
:101B10000880B4E0B0F850202B78062101EBC30117
:101B2000114406EB4101415AC1F309015FEA010A80
:101B300024D0AA885346696901F08CFD1EE0B0F8F4
:101B40005020062303EBC101114406EB4101415A29
:101B5000C1F309015FEA010A04D02A895346696981
:101B600001F078FD2978206830F8213048F68F722E
:101B7000134048F2C002134320F82130E96901EB19
:101B80000A00E861696901EB0A026A61AB6913B195
:101B90002869504504D929782046FEF721FE03E044
:101BA00029782046FEF792FEBDF80000000666D5B3
:101BB000206804EB471530F8271001EA0B0120F8E4
:101BC000271095F8320028350028206812D029788F
:101BD00030F82120B0F8503052061ED509EBC10173
:101BE000194406EB4101405A83059B0DEB6124D05B
:101BF000EA881EE0B0F850302A7809EBC201194497
:101C000006EB4101405A83059B0DEB6121D0AA8868
:101C10006969206801F035FD1BE0062202EBC10175
:101C2000194406EB4101405A83059B0DEB6104D03A
:101C30002A896969206801F024FD2978206830F834
:101C4000212048F68F731A404CF280031A4320F883
:101C500021202068B0F850202B7809EBC3011144F3
:101C600006EB4101405AC0F30900E86169690A18AE
:101C70006A612978AB69204663B1FEF769FE206886
:101C8000B0F84410ADF8041009043FF565AE00202B
:101C9000BDE8FC9FFEF79DFDF1E7704770B5044677
:101CA000FEF7B6FC05464FF47A7606E0FEF7B0FC88
:101CB000401BB04201D9032070BD206840688006F7
:101CC000F4D52068416841F010014160002070BDEA
:101CD00070B504460068416821F010014160FEF7CC
:101CE00097FC05464FF47A7607E000BFFEF790FCBC
:101CF000401BB04201D9032070BD206840688006B7
:101D0000F4D5002070BD00002DE9F04107460B48D6
:101D100015460E46007808B901F0C8FCEFF31184AF
:101D2000202080F311882A463146384600F008F812
:101D3000E1B281F31188BDE8F08100007402002057
:101D400070B50E46144900EB400001EBC005144687
:101D5000E86A183520B101280FD0022805D113E018
:101D6000284601F0D8FCA04201D2002411E022460E
:101D70003146284601F0F4FD0BE0284601F0CBFC8B
:101D8000A042F4D20446F2E73146284601F0BBFDFA
:101D90000446204670BD0000740200200FB408B550
:101DA00004A900916A46039900F003F801B05DF8B8
:101DB00014FB2DE9F04198B0064607A80290402098
:101DC0000025CDE90305CDE9055690460C4614F8EB
:101DD000011B002973D0252908D002A801F074FD49
:101DE00005980028F3DA18B0BDE8F0810020012141
:101DF0002278232A1ED02B2A19D02D2A02D0302A4D
:101E000008D102E040F0010001E040F00200641C53
:101E10000029EDD100222178A1F130030A2B0CD248
:101E200002EB820201EB4202303A641CF3E740F01D
:101E30000400ECE740F00800E9E70023CFB22E2FC2
:101E40000BD114F8011FA1F130070A2F05D203EBC3
:101E5000830301EB4303303BF3E76C290DD0682982
:101E60000BD0702954D00BDC252916D0582931D03D
:101E700063290CD0642913D114E014F8011FECE796
:101E8000732934D075291BD0782909D122E0D8F8DC
:101E90000000011DC8F80010017802A801F014FD2F
:101EA000641C9DE7D8F800100F1DC8F80070096881
:101EB000CDE900200A2202A801F038FCF0E733E067
:101EC000D8F800100F1DC8F800700968CDE900208F
:101ED0000A2208E0D8F800100F1DC8F80070096841
:101EE000CDE90020102202A801F084FCD8E7D8F840
:101EF0000000011DC8F80010076817F8011B002931
:101F0000CED002A801F0E0FC05980028F5DAC7E77A
:101F1000D8F80000011DC8F8001001680820CDE9BC
:101F2000000503461022DEE7059800287FF75BAF27
:101F3000049820B1024607A93046FFF7E5FEDDE927
:101F40000410084405904EE7704710B5FEF766FB95
:101F5000BDE81040FFF782BA30B593B001210520EB
:101F600000240090CDE902414FF480300190022519
:101F70000491CDE907504FF4E01009906846FFF74F
:101F800043F800B1FEE70F20CDE90A054FF4806069
:101F9000CDE90C4002210AA80E94FEF72FFF00B1F4
:101FA000FEE711200F904FF48070109012940FA84C
:101FB000FEF7AEFE00B1FEE7FEF7CAFF4FF47A71FE
:101FC000B0FBF1F0FFF736FA0420FFF726FA002203
:101FD0001146501EFEF7B0FB13B030BD0D4801682E
:101FE00041F00101016041680B4A11404160016804
:101FF0000A4A11400160016821F4802101604168B2
:1020000021F4FE0141604FF41F0181600449C003C7
:1020100008607047001002400000FFF8FFFFF6FE66
:1020200008ED00E010B5406A0021C185C184FFF7CA
:1020300071FA10BD10B5406A0021426B5163026B0A
:1020400012B1526B002A09D1C184C185C16320211C
:1020500080F8391080F83A10FFF704FA10BD10B577
:10206000406A0021026B5163426B12B1526B002A2D
:1020700009D1C184C185C163202180F8391080F85D
:102080003A10FFF7EFF910BD0168CA6822F49072A8
:10209000CA6001684A6922F001024A61202180F881
:1020A0003A10704710B590F83A10222901D002205A
:1020B00010BD8168B1F5805F11D001690029016808
:1020C0001FD0496801F07F03816A4A1C82620B704D
:1020D000C18D491E0904090CC18518D02BE0026985
:1020E000816A002A0268526805D0D2B20A80816AE9
:1020F000491C8162ECE7C2F308020A80816A891CEC
:10210000F7E74A68816A4B1C83620A70E0E701685E
:10211000CA6822F02002CA600168CA6822F480728C
:10212000CA6001684A6922F001024A61202180F8F0
:102130003A10FFF74DFB002010BD00002DE9F041E3
:10214000044600680169E26821F4405111430161CD
:102150002169A0680843616908432168CA6841F29F
:102160000C639A430243CA6020684169A26921F462
:102170004071114341614C492068642532268842F0
:102180003CD1FEF7FBFE00EBC00101EB00106168E3
:102190008900B0FBF1F7FEF7F1FE00EBC00101EBA7
:1021A00000106168B0468900B0FBF1F0B0FBF5F0BB
:1021B0006FF01801484307EB800106EB0110B0FBFC
:1021C000F5F000F0F006FEF7D9FE00EBC00101EBE0
:1021D000001061688900B0FBF1F0B0FBF5F006EB90
:1021E0000016FEF7CBFE00EBC00101EB00106168AA
:1021F0008900B0FBF1F7FEF7C1FE3BE0FEF7AEFE53
:1022000000EBC00101EB001061688900B0FBF1F741
:10221000FEF7A4FE00EBC00101EB00106168B046C0
:102220008900B0FBF1F0B0FBF5F06FF01801484306
:1022300007EB800106EB0110B0FBF5F000F0F006B3
:10224000FEF78CFE00EBC00101EB00106168890015
:10225000B0FBF1F0B0FBF5F006EB0016FEF77EFEEA
:1022600000EBC00101EB001061688900B0FBF1F7E1
:10227000FEF774FE00EBC00101EB001061688900FD
:10228000B0FBF1F0B0FBF5F06FF01801484307EB3D
:10229000800108EB0110B0FBF5F0216800F00F00A1
:1022A00030448860BDE8F0810038014090F8391072
:1022B000212901D0022070478168B1F5805F016A51
:1022C0000BD04A1C0262026809785160C18C491E19
:1022D0000904090CC1840ED017E009880268C1F313
:1022E0000801516001690029016A02D0491C01629C
:1022F000ECE7891CFBE70168CA6822F08002CA602B
:102300000068C16841F04001C160002070470000D2
:10231000F8B50F48FFF71EF90D4800680168C906B7
:1023200014D50C490A68002A10DD0B4B1C68002CE0
:102330000CD10A4C0A4E256835600126AE43266052
:102340001A6000220A60016840680090F8BD000031
:10235000400500200400002008000020100000209C
:102360000C000020F8B50F48FFF7F4F80D4800689E
:102370000168C90614D50C490A68002A10DD0B4B08
:102380001C68002C0CD10A4C0A4E256835600126C9
:10239000AE4326601A6000220A600168406800901F
:1023A000F8BD000080050020140000201800002067
:1023B000200000201C000020D0F8180220B10021CD
:1023C000C0F81412084670470220704770B50E46D8
:1023D0000546D0F8184200F06FFBC4F80C02D5F89F
:1023E000180278B1012E0BD05FF00202D5F81C1252
:1023F000D4F80402CB6804F503719847002070BD3F
:102400000022F3E7022070BD70B50446002581214B
:1024100000F0B8FA0121204600F0B4FA82212046EB
:1024200000F0B0FA8321204600F0ACFA03212046E8
:1024300000F0A8FA8421204600F0A4FAD4F818028B
:1024400050B1D4F81C0204F5067440688047206837
:1024500000F0DCFD00202060284670BD70B5D0E99A
:10246000864171B194F80062FF2E0AD0B0F80C32A8
:102470008D6894F8012221463046A847FF2084F851
:102480000002002070BD00000A2101800048704752
:10249000800000208D210180004870471C01002031
:1024A0008D210180004870478C0000208D21018023
:1024B00000487047AC0100202DE9F0410546007C42
:1024C00000264FF40077E0B3402302228121284602
:1024D00000F068FB402302220121284600F062FB45
:1024E000402302228321284600F05CFB4023022285
:1024F0000321284600F056FB0823032282212846A8
:1025000000F050FB082303228421284600F04AFBF8
:102510004FF4077000F07CFDC5F8180290B3044634
:10252000D5F81C02006880470020C4F81402C4F8E3
:102530001802287CD4F8042238B34023012128460D
:1025400000E00BE000F041FBD4F80422402303211B
:10255000284600F03AFB3046BDE8F0813B460222B7
:102560008121284600F01EFB3B460222012128461D
:1025700000F018FB3B4602228321284600F012FBA4
:102580003B46B4E7FFE70126E5E73B460121284645
:1025900000F01BFB3B46D4F80422D8E710B5D0F876
:1025A0001822AAB1037CD2F804221BB1022909D255
:1025B000012108E0022901D2012100E003214FF4AA
:1025C000007301E00321402300F0FFFA002010BD5A
:1025D000022010BD02460220002902D00020C2F8CD
:1025E0001C127047D0F81802C0F80412002070477F
:1025F000D0F81802C0F81022C0F808120020704766
:102600002DE9F0410646D0F8185208780C4610F033
:10261000600124D020292AD1E288BAB1000609D568
:10262000D6F81C12A38860788F682946B847E288DC
:10263000294619E0607885F80002A07985F8010242
:10264000E2882946304600F055F810E0D6F81C1212
:10265000A38860788D6800222146A84707E060784B
:102660000A2804D103490122304600F05DF8002019
:10267000BDE8F0817C00002010B5D0F81822AAB186
:10268000D2F814320BB1012010BD0123C2F814326C
:10269000B2F81032D2F808229BB2022901D281216D
:1026A00000E0832100F03BFB002010BD022010BDA4
:1026B00010B5D0F8142252689047002010BD134680
:1026C00010B50A46002100F080FA002010BD134624
:1026D00010B50A46002100F022FB002010BD10B505
:1026E0000446802100F0F2FA2046BDE810400021A7
:1026F00000F0ECBA10B50323C0F80821C0F8F4319B
:10270000C0F80C2113460A46002100F05EFA0020B2
:1027100010BD10B505210023C0F8F4111A46194662
:1027200000F053FA002010BD10B502238261C0F8FA
:10273000F431C26113460A46002100F0F0FA00208D
:1027400010BD10B504210023C0F8F4111A46194633
:1027500000F0E5FA002010BD10B50A46024903A0BA
:1027600000F0C8F8004810BD641600204344432020
:10277000436F6E666967000012200880004870474A
:102780004400002010B50A46024903A000F0B2F848
:10279000004810BD6416002043444320496E746510
:1027A000726661636500000004200880004870477D
:1027B0004000002010B50A46024903A000F09AF834
:1027C000004810BD641600204465762E49647600EA
:1027D00010B50A46024903A000F08CF8004810BD6D
:1027E000641600204475616C506F72740000000024
:1027F00010B50A46024903A000F07CF8004810BD5D
:1028000064160020303030303030303030304131DC
:1028100000000000F8B5044648880D46010A082962
:102820004BD2DFE801F04A0409174A4A4048D4F87D
:102830001012207C0A6832E0207C02260028D4F89E
:10284000140205D0C16A684688470146467041E0D7
:10285000816AF8E7C0B206282FD2DFE800F003084B
:102860000D12171CD4F81012207C4A6817E0D4F817
:102870001012207C8A6812E0D4F81012207CCA68FA
:102880000DE0D4F81012207C0A6908E0D4F8101288
:10289000207C4A6903E0D4F81012207C8A696946DA
:1028A0009047014616E0207C38B9D4F81402416BF9
:1028B00068468847F5E7207C20B129462046FFF787
:1028C0000EFFF8BDD4F81402016B68468847014634
:1028D00007204870BDF800000028F2D0EA88002ADE
:1028E000EFD0824200D90246ADF800202046FFF723
:1028F0001BFFF8BD70B5002300281DD0044600253D
:1029000002E06D1CEDB2641C2678002EF9D1022481
:1029100004EB45041480CC545B1C0322CA540024ED
:102920005B1C06E0CA545B1CDAB28C54521CD3B256
:10293000401C0278002AF5D170BD10B580B1D0F8E6
:10294000143213B10023C0F8143209B1C0F81012C8
:10295000012180F8FC11027000F0B2F8002010BDD7
:10296000022010BD10B50024D0F82002FDF760FF52
:1029700030B1012801D0022801D0022400E0012456
:10298000204610BD10B50024D0F82002FDF730FF1E
:1029900030B1012801D0022801D0022400E0012436
:1029A000204610BD2DE9F0411746044641B1D4F848
:1029B000140242698AB394F8FC01032842D043E030
:1029C000D4F8F411002504F11400022933D1D0E920
:1029D00002639E4207D9F31A83609AB239462046B1
:1029E000FFF775FE12E04068B0FBF3F103FB110145
:1029F000A1B9984212D3D4F8F81188420ED200221D
:102A000011462046FFF763FEC4F8F85100231A462A
:102A10001946204600F0D9F80DE012E0D4F814026F
:102A2000C16829B194F8FC01032801D120468847E8
:102A30002046FFF76EFE94F80002012804D184F8C6
:102A4000005201E0204690470020BDE8F08170B5BB
:102A50001546044641B1D4F8140282693AB394F899
:102A6000FC01032824D025E0D4F8F41104F5827089
:102A700003291FD1D0E902218A420BD9531A83605E
:102A80000846834200D303469AB229462046FFF700
:102A900016FE0FE0D4F81402016929B194F8FC0184
:102AA000032801D1204688472046FFF74AFE01E06F
:102AB00020469047002070BDD0F82002FDF7DCBE14
:102AC00010B5044629482A49C0F85C44C4F82002DD
:102AD000016008214160022181600321C160002161
:102AE0008161C1610162FDF7CFFF20B14FF49771A1
:102AF00020A000F00FFE0022D4F820022823114667
:102B000004F50874FDF74AFE602300228021206846
:102B1000FDF744FEC023002281212068FDF73EFE20
:102B20004FF48873002201212068FDF737FE4FF42F
:102B30008073002282212068FDF730FE4FF4C073BD
:102B4000002283212068FDF729FE4FF4E073002264
:102B500003212068FDF722FE4FF4E8730022842150
:102B60002068FDF71BFE002010BD000004120020AD
:102B7000005C00402E2E2F5372632F757362645FCA
:102B8000636F6E662E6300000A06D0F8200201F023
:102B90007F0100EB411002D590F82A00704790F8B1
:102BA0002A02704770B51D4613460024D0F8200253
:102BB0002A46FDF769FE30B1012801D0022801D074
:102BC000022400E00124204670BD10B50024D0F896
:102BD0002002FDF77BFE30B1012801D0022801D090
:102BE000022400E00124204610BD70B500220446F6
:102BF00040231146FFF7D6FF40252B4600228021B7
:102C00002046C4F81051FFF7CDFF0120256284F85B
:102C1000FC01D4F8180228B1D4F8140221794268D2
:102C200020469047002070BD90F8FD1180F8FC11FF
:102C30000020704710B590F8FC11032904D1D0F89A
:102C40001412C96901B18847002010BD0174002029
:102C5000704710B50024D0F82002FDF7A8FF30B16E
:102C6000012801D0022801D0022400E001242046DE
:102C700010BD70B5044600F50270054600F05FF81F
:102C80000120C4F8F401B4F80E02C4F8F80194F875
:102C9000080210F01F010AD001290DD0022910D01E
:102CA00000F08001204600F011F8002070BD294698
:102CB000204600F0AAF8F8E72946204600F08CF9F3
:102CC000F3E72946204600F019F9EEE710B5002495
:102CD000D0F82002FDF711FE30B1012801D0022802
:102CE00001D0022400E00124204610BD10B50024CC
:102CF000D0F82002FDF776FF30B1012801D002287C
:102D000001D0022400E00124204610BD90F8FC11FF
:102D100080F8FD11042180F8FC110020704710B5E7
:102D20000024D0F82002FDF713FE30B1012801D0B5
:102D3000022801D0022400E00124204610BD0A78B8
:102D400002704A7842708A78CB7802EB0322428084
:102D50000A794B7902EB032282808A79C97902EBE6
:102D60000121C18070470246002011B1C2F814123F
:102D700070470220704710B5D0F8142202241AB10F
:102D80001268904700B90024204610BD70B50E4669
:102D90001A4D897804462970012928D894F8FC0135
:102DA000022802D0032822D105E099B103206160F6
:102DB00084F8FC0109E091B1606888420AD0C1B290
:102DC0002046FFF775FC297861602046FFF7D3FFA6
:102DD00002280CD02046BDE87040FFF7B2BC0220AC
:102DE00084F8FC0120466160FFF762FCF2E731469F
:102DF0002046BDE87040FFF772BC0000780000205C
:102E000010B5FFF773FF002010BD2DE9F0414B789E
:102E10004FF000080125022642460A2B42D2DFE885
:102E200003F03B56414F410805412926FFF7F2FCCC
:102E300061E004468888C0B9C888B0B9887800F0D5
:102E40007F0794F8FC0103280FD084F8FE713946FF
:102E50002046FFF7FEFE2046FFF773FC17B184F80B
:102E6000FC6148E084F8FC5145E020461AE0FFF799
:102E70008DFF40E0CB88012B14D190F8FC31022B60
:102E800002D0032B0ED104E08260012200F1080180
:102E900013E00122011D10E090F8FC31022B04D058
:102EA000032B02D0FFF71BFC25E0C260D0F8041210
:102EB00001B1C660022200F10C01FFF735FC1AE0F7
:102EC00004464888012816D1C4F804520BE0044691
:102ED00090F8FC01022801D00328C6D148880128B7
:102EE00009D1C4F80422D4F814028268204690471D
:102EF0002046FFF726FC4046BDE8F08170B50D4640
:102F00000446287800260979C0F34110012806D02C
:102F10006878A0B301281FD003283FD107E0D4F878
:102F200014022946826820469047002070BD94F81C
:102F3000FC01022817D003282CD1688828B921B1B8
:102F4000802902D02046FFF7C1FED4F8140229469A
:102F500082682046904713E094F8FC01022802D0D2
:102F6000032817D103E0C9B180291BD116E0688876
:102F7000A0B9480604D02046FFF7F4FCE5E703E0DB
:102F80002046FFF7DEFB09E094F8FC01022807D099
:102F900003280BD029462046FFF7A1FB304670BD21
:102FA0004806FBD02046FFF791FEF7E7080601F040
:102FB0007F0004EB001501D5143501E005F582759D
:102FC0002046FFF7E1FD00B10120286002222946DA
:102FD0002046FFF7A9FBE1E770B5054690F8FC0134
:102FE0000C4603280DD1207903280AD8D5F81402FD
:102FF000826828469047E08830B92846FFF7A1FB51
:1030000002E02846FFF76BFB002070BD7047000010
:1030100000487047E40F00202DE9F047CC780A788B
:1030200048F68F1334B1012C6DD0022C08D0032C3C
:1030300013D10BE030F822401C4044F400730AE046
:1030400030F822401C4020F8224006E030F82240B0
:103050001C4044F4C06320F822300C7830F824502F
:1030600048F68F72154048F280031D43254320F82F
:1030700024508D7A48F6BF7904274BF68F7A48F2B0
:10308000C0044CF28006EDB30D7830F825C048F24C
:1030900080180CEA020C4CEA080C20F825C0CD88F8
:1030A000B0F850C025F0010591F800800CEBC80C79
:1030B00000EB4C0CCCF800540D89B0F850C025F052
:1030C000010591F8008007EBC807674400EB47074C
:1030D000C7F800544D78002D0D7830F825704FEA70
:1030E00047477DD0002F05DA30F825701740374369
:1030F00020F825700D7830F825707F0608D530F857
:10310000257001E024E01DE01740274320F82570DA
:103110000C7830F824501540354320F824500C78B2
:1031200030F8242002EA09021A4320F824200A7801
:1031300030F8221001EA0A01194320F82210002079
:10314000BDE8F08730F822401C4044F4806382E7F9
:103150004D78F5B18D88B0F8506025F001050F78F5
:1031600006EBC70600EB4606C6F800540D7830F8AB
:103170002560760605D530F825601640264320F8F0
:1031800025600A7830F8221001EA090181F0200157
:10319000D2E78C88B0F8505024F0010491F800C0B8
:1031A00007EBCC073D4400EB4505C5F80044B0F8FB
:1031B00050400D78062707EBC5052C4400EB44076B
:1031C0000C694FF6FF7C07F580673E2C0CD9C4F3E1
:1031D0004F15E40601D16D1EADB20CEA852400E066
:1031E0001EE044F4004407E0C4F34F05E40701D0B7
:1031F0006D1CADB20CEA85243C600C7830F824508C
:103200006D0405D530F824501540354320F824507E
:103210000A7830F8221001EA0A0181F440518BE764
:10322000002F05DA30F825701740374320F8257055
:103230000D7830F82560760605D530F82560164003
:10324000264320F825600E7830F826501540254397
:1032500020F826500C7830F8242002EA0A0282F482
:1032600040521A4320F824200A7830F8221001EA4C
:10327000090161E7002070472DE9F04391F80A80C9
:1032800091F801C00A7848F6BF774BF68F7948F27B
:10329000800348F2C0054CF2800648F68F74B8F1FE
:1032A000000F2ED0BCF1000F30F822C04FEA4C4C7A
:1032B0004ED0BCF1000F07DA30F822C00CEA040C43
:1032C0004CEA060C20F822C00A7830F822C05FEAE7
:1032D0004C6C07D530F822C00CEA040C4CEA050C03
:1032E00020F822C00A7830F822502540354320F8D3
:1032F00022500C7830F824203A401A4320F8242039
:103300001BE0BCF1000F0ED030F82260760605D528
:1033100030F8226026402E4320F822600A7830F8E8
:10332000221039400EE030F822506D0405D530F8F7
:1033300022502540354320F822500A7830F82210D8
:1033400001EA0901194320F822100020BDE8F083AA
:10335000BCF1000F07DA30F822C00CEA040C4CEA8A
:10336000060C20F822C00A7830F82260760605D5CF
:1033700030F8226026402E4320F822600E7830F884
:10338000262022402A4320F826200C7830F82420DA
:1033900002EA09021A4320F82420BFE70020704700
:1033A0000020704700B50121A0F840100021A0F8CE
:1033B0004010A0F84410A0F8501000F03AF9002096
:1033C00000BD30F8401F21F43D41018000207047CE
:1033D0000020704730B54D780A78002D48F68F747C
:1033E00030F8225048F2800312D06D0607D530F82D
:1033F0002250254048F2C004254320F822500A7884
:1034000030F8221048F6BF74214081F0300111E0FD
:103410006D0407D530F8225025404CF28004254336
:1034200020F822500A7830F822104BF68F74214091
:1034300081F44051194320F82210002030BD10B50E
:103440000A7848F2800352B14978002930F82210F6
:1034500010D048F6BF74214081F010010FE00188C0
:103460004BF6BF72114081F4805181F01001194375
:10347000018007E04BF68F74214081F4805119439D
:1034800020F82210002010BD2DE9F0410D4606461F
:10349000896995F801C00023AA7A022728690C4699
:1034A00048F28008BCF1010F05D0814252D9044690
:1034B000081AA8614FE0814203D90446081AA8619E
:1034C00000E0AB617AB1287836F820104906B6F8EA
:1034D000501007EBC000084406EB4000C0F8004461
:1034E00012D52A8911E0A3B2AA883046696900F092
:1034F000C8F8B6F85000297807EBC101084406EB7C
:103500004000C0F800441CE0EA88A3B23046696974
:1035100000F0B7F8687848F68F7110B1012807D02D
:103520000FE0287836F820200A4048F2C00105E074
:10353000287836F820200A404CF280010A4326F809
:103540002020297836F8210048F6BF72104080F01C
:10355000300067E0AB6106234FF6FF701AB1BCF193
:10356000000F1BD056E0B6F850102A783E2C03EB23
:10357000C202114406EB410202F5806239D9C4F35C
:103580004F11E30632D000BF00EA812040F4004032
:1035900002E000BF00EA812010603BE0B6F8501066
:1035A0002A783E2C07EBC202114406EB410202F5D9
:1035B00080620BD9C4F34F115FEAC46C01D1491E7C
:1035C00089B200EA812141F4004108E0C4F34F01CF
:1035D0005FEAC47C01D0491C89B200EA81211160F4
:1035E00069780029BFD001290AD013E0491E89B2A9
:1035F000CAE7C4F34F01E307CCD0491C89B2C9E73D
:10360000B6F85000297807EBC101084406EB4000EA
:10361000C0F80044297836F821004BF68F7210402C
:1036200080F4405040EA080026F821000020BDE860
:10363000F08130F8401F41F43F4101800020704785
:103640000148FDF79AB9000004120020B0F84400C8
:10365000704700005B1C00EB42005B0800F58060D7
:1036600006D000BF30F8042B21F8022B5B1EF9D1E5
:1036700070470020704711B98021A0F84C1000203D
:10368000704710B55B1C00EB42005B0800F58060E2
:1036900009D011F8012B5B1E11F8014B42EA0422FC
:1036A00020F8042BF5D110BDFEE7000010B5124C38
:1036B00003202061606111A0A06104F1A800E06115
:1036C0004FF4007020620020A06260620BA12166AE
:1036D000E06204F52A71616610212067C4E91A10BE
:1036E000606709A1E01DFCF72FFD08A12046FCF74B
:1036F0002BFD2020A07110BD740200205465726D56
:10370000696E616C000000005254540053454747F5
:1037100045520000FEE70269C1688A4203D880680A
:10372000401A104400E0501A401E70472DE9FC5F1B
:103730000E008146DDE90C47C6F10000984693462D
:10374000824600D40846012503E000BF90FBFBF051
:103750006D1C5845FADAA84500D9454624B1002E1B
:1037600001DB780700D5641EB80702D5B8F1000F59
:103770000FD0F8070DD164B1A5420AD220214846E6
:10378000641E00F0A1F8D9F80C000028F3DABDE8B7
:10379000FC9FD9F80C000028F9DB002E02DA56460F
:1037A0002D2102E0780707D52B21484600F08CF840
:1037B000D9F80C000028EADB07F0030002280FD13B
:1037C000B8F1000F0CD15CB1A54209D230214846B6
:1037D000641E00F079F8D9F80C000028F3DAD6E777
:1037E000CDE9004743465A463146484600F002F8C4
:1037F000CDE700002DE9F84F8246DDE90A4B0126AE
:10380000984691460D460846374602E0B0FBF9F06F
:103810007F1C4845FAD2B84500D947465FEACB70CD
:1038200017D1B4B15FEA8B7002D5B8F1000F02D0A6
:10383000202000900BE03020FBE75046641E0099EA
:1038400000F042F8DAF80C00002838DB0CB1A7428F
:10385000F3D3DAF80C00002831DB00BFB8F1010F18
:1038600002D9A8F1010803E0B5FBF6F0484502D300
:1038700006FB09F6F2E7DFF84C8000BFB5FBF6F077
:1038800000FB165518F80010504600F01DF8DAF845
:103890000C00002803DBB6FBF9F6002EEED15FEA40
:1038A000CB700CD0002C0AD0A74208D22021504661
:1038B000641E00F009F8DAF80C000028F2DABDE81E
:1038C000F88F0000143B000810B50446D4E901301D
:1038D000421C934205D323681954A260E068401C3F
:1038E000E060D4E90102824209D121682069FEF733
:1038F0000BFAA168884203D04FF0FF30E06010BDA2
:103900000020A06010BD2DE9F047C4681746894625
:1039100006464FF000083069A04201D9051B02E0BD
:10392000B168201A0D1AB0686D1E001BA84200D89D
:103930000546BD4200D33D4670682A4620444946AC
:10394000FCF7F0FBB0687F1B2C44A844A944A042BC
:1039500000D10024F460002FDDD14046BDE8F0879F
:103960002DE9F04104468846D4E90207C51BE16809
:10397000606816460844B54206D94146FCF7D2FBBA
:10398000B819E060BDE8F0812A464146FCF7CAFB61
:10399000761B08EB050132466068FCF7C3FBE66066
:1039A000F0E702E008C8121F08C1002AFAD17047E8
:1039B0007047002001E001C1121F002AFBD17047AF
:1039C00008B5FCF733FEFEF7C7FA4C48816941F0B1
:1039D00010018161816901F010010091816941F05C
:1039E00020018161816901F020010091816941F02C
:1039F00004018161816901F004010091816941F054
:103A00000801816180693E4900F0080000903D484E
:103A100001604FF0FF3141604FF480718160FDF72C
:103A200075FC00B1FEE7374D374814354FF4E137E8
:103A300028600024C5E901744FF00C08EC60C5E96A
:103A40000448AC612846EC61FDF70CFE00B1FEE7CE
:103A50002C4E2E4854363060C6E90174F460C6E935
:103A60000448B4613046F461FDF7FCFD00B1FEE7A7
:103A7000FDF71EFF2868C16821F40051C16030685D
:103A8000C16821F40051C1601E4E214D943606F5E7
:103A90008067A868002816DD2889002281B2E868BE
:103AA00006EB4020FCF770FC0128F5D0287A800650
:103AB00008D1E868002206EB40201146FCF764FCC0
:103AC0000128F6D0AC60A8690028E2DD288B02222C
:103AD00081B2E86907EB4020FCF756FC0128F5D0DD
:103AE000287E800608D1E869022207EB40200021E9
:103AF000FCF74AFC0128F6D0AC61CAE7001002408E
:103B0000002800402C0500200044004000480040F0
:103B100000000020303132333435363738394142F5
:103B20004344454600000000000000000102030479
:103B30000607080900000000010203044C494E4535
:103B40005F434F44494E473A20554152543D2573F7
:103B50002C20626974726174653D25642C20666F47
:103B6000726D61743D25642C207061726974793DB9
:103B700025642C2064617461747970653D25640A44
:103B800000000000A43B00080000002074020000B8
:103B900080010008983C000874020020F421000015
:103BA000B239000801100A1101101379271B08A966
:103BB000041AB5041AD1041AF1041A59041A850416
:103BC00017040309041201100A02EF0201408334B2
:103BD000B90B1D02010203351329031B0825041329
:103BE000D9011B084D082948821084A24A04130AEF
:103BF0000632022A40201409028D1304011CC0322F
:103C000008471A02491A09271A010911130524162F
:103C100010010524011009010424020205240617DD
:103C20000107058203081B10093133020A1D07052D
:103C300001024B2C070581071B080B413942DA02B0
:103C4000425A03424E0203070584426A03422C0390
:103C50000240072A8307094290394E2A8107094406
:103C60009013078D0E20020104C032880A15FF88C8
:103C7000014D13B9241B08090413012642081A5DDB
:103C80000C13B9231B08CD04C11AA1181A95041AE4
:083C9000AD041A8904000000D4
:04000005080000ED02
:00000001FF
